:020000000C945E
:100002003C000C9400000C9400000C9400000C9432
:1000120000000C9400000C9400000C9400000C945E
:10002200BB000C9469000C9400000C9400000C942A
:1000320000000C9400000C9400000C9400000C943E
:1000420000000C9400000C9400000C9400000C942E
:1000520000000000000000000000000001002D4E22
:10006200414E00494E4600000A00040054000100BF
:1000720060015E000000F894EE27ECBBF1E0FBBFEC
:10008200EBBFE5BF8DE0A2E0BB27ED938A95E9F7D0
:1000920080E094E0A0E6ED930197E9F7EAE6F0E06C
:1000A20085919591009761F0A591B5910590159074
:1000B200BF01F00105900D920197E1F7FB01F0CF2E
:1000C200EFE5EDBFE4E0EEBFC0E6D1E00C94DC006A
:1000D2000A921A92FA926A937A938A939A93AA93B9
:1000E200BA93EA93FA93EFB7EA93F50131965F0177
:1000F200E2E0F0E0EA15FB0569F5E0E0F0E060E03F
:1001020070E40E94A5020E944D03E5BBE0E0F0E02E
:1001120060E271E40E94A502D2010E94D4040E940E
:100122001A050E945E040E944F033F01D301EAE0D8
:10013200F0E00E94EC043F0162BAF60131966F01D1
:10014200E4E0F0E0EC15FD051CF4E1E0F0E06F0105
:10015200AA24BB24E0E0E2BFE991EFBFF991E99163
:10016200B991A9919991899179916991F99019908F
:1001720009901895EA93FA93EFB7EA93F40131964E
:100182004F01EAEFF0E0E815F90561F4EFE0F7E27C
:10019200E415F50514F444245524F20131962F0197
:1001A20088249924EFEFEDBDE0EFECBDE991EFBFBC
:1001B200F991E9911895EFEFE1BBE2BBE4BBE5BB36
:1001C200E5E0E9BFE3BFEEBDEFEFEDBDE0EFECBD73
:1001D200E0E0E5BFE4BF7894FFCFFFCF0E941305B4
:1001E2007B816A81F981E88177FB770F67FD716016
:1001F200972F9E5781F078F0983190F4AA27BB2769
:10020200882708948795B795A7959A95D1F7EA23F9
:10021200FB23682305C0E8947727EE27FF2766278C
:100222006F77769508F4606877F9A991B991899109
:100232009991EA17FB076807790797FB08950E94CF
:1002420013050E9404050E94EF000E94090519F49B
:100252000E94B10205C0E6F70E94B1020E94B402F8
:10026200249608950E94130524971A930A930E94D4
:10027200BB020E942E052CF0EFEFFFEF6FE77FEF3E
:1002820073C00E94C0020E940E05ADB7BEB711979F
:100292001F930F930E94FD020F911F910E94C502AE
:1002A2000E94BB02E3EFF4E065E37FE30E94A30454
:1002B20040F40E94CA020E94C0030E94C50201507B
:1002C20010400E94C0020E94B4027F936F93FF937A
:1002D200EF930E94C002A0E0B0E080E89FE30E949A
:1002E200C003AF91BF918F919F910E945E040E94C3
:1002F200C5020E94CA020E94CC02A6E2B2E485E6CE
:100302009FE30E94D302EEE4F1E164E570E40E940F
:10031200D8020E94BB020E9410047F936F93FF9346
:10032200EF930E94DD02ADE4B1E184ED9FE30E9410
:10033200B903AF91BF918F919F910E945E047F9309
:100342006F93FF93EF93F8010E94CF040E948603FC
:10035200A8E1B2E781E39FE30E941004AF91BF914D
:100362008F919F910E94C003198108812A96089556
:100372000E94130528971A930A930E94E202E0E56D
:10038200FCEA6EEA72EC0E94A30418F40E94E702EF
:1003920085C0EA85FB856C857D850E942A0529F446
:1003A200E0E0F0E060E87FE379C00E94E202E8E189
:1003B200F2E761EB72E40E94A30409F008F405C0BD
:1003C200EFEFFFEF6FE77FE769C00E94E202EBE326
:1003D200FAEA68EB7FE30E941004EA87FB876C87E6
:1003E2007D870E94E2022BDF0E944F038F010E9451
:1003F200E2020E94CF040E9486030E94D802DF011B
:10040200CB01E0E0F0E060E07FE30E94D8020E94CE
:10041200C5020E94CA020E94CC02ADE6BCE48CE690
:100422009DE30E941004A6EAB3EE86EE90E40E94D9
:10043200C0030E94BB020E9410040E94C5020E94D7
:10044200DD02A8E2BDE886EA91E40E94C003EA83E5
:10045200FB836C837D830E94C002AA81BB818C8155
:100462009D810E94C003A3EFB4E085EB9FE30E944D
:1004720010047F936F93FF93EF930E94BB020E943D
:10048200DD020E94B903AF91BF918F919F910E94AB
:100492005E040E940E05D8010E940E031981088194
:1004A2002E9608950E94130524970E94EC020E9442
:1004B2002A0519F40E94E70245C0A885B9858A85F4
:1004C2009B850E942E0594F40E94F1020E942A0547
:1004D20029F4E0E0F0E060E87FE334C0A885B98564
:1004E2008A859B850E94F60243DF2CC00E94F1029E
:1004F200DE010E944F030E94FA040E94B1020E9490
:100502008603DF01CB010E94F1020E94340519F03B
:100512000E94E70217C00E94EC020E941A03DF0148
:10052200CB010E94F60224DFE887F9876A877B877E
:10053200E881E17019F40E94EC0204C00E94EC020E
:100542000E941A032C9608950E940E05F601319717
:100552000E94CF040E948603DF01CB010C94530258
:100562000E94FF040895A0E0B0E080E89FE30E94AB
:10057200B9030895AE81BF81888599850895EE817A
:10058200FF81688579850895EE83FF83688779877F
:100592000895F5DFEFCF0E941004EA83FB836C839A
:1005A2007D8308950E941004DF01CB0108950E940B
:1005B2001D050E94B9030895EA81FB816C817D814A
:1005C2000895AA85BB858C859D850895E0E0F0E0BD
:1005D20060E070E00895E885F9856A857B85089575
:1005E200EC81FD816E817F8108950E943301AC818F
:1005F200BD818E819F81D6CFE991F99169917991DF
:1006020077FB660F771F88277E57880B7D938C9325
:100612007EE7769567956EF00895E991F991699173
:10062200799177FB660F771F7A0F769567950EF0B3
:10063200089530976040704009F07058089555232E
:1006420042F4503811F4E0FF04C03196691F791F5B
:100652006BF050E8572711F45F93CFC05F3F31F042
:10066200660F000C57956795752F08955F930020CC
:100672000AF0CFC0C8C050E8192E1522880F991F62
:100682009527550F879550E8072E0522660F771F8D
:100692007527550F67950895689401C0E8945F9394
:1006A200F2DF703818F07F3F08F4A7C056E1571BFD
:1006B200AAF4519558300EF4593030F0EFEFFFEFB5
:1006C2006FEF7FE777F91AC077275523B9F0EE0F5E
:1006D200FF1F661F771F5A95D1F710C07727583032
:1006E20028F0EF2FF62F672F5850F9CF552331F00E
:1006F20076956795F795E7955A95D1F700200AF414
:1007020045D15F910895689401C0E89430976040A4
:100712007040B1F0002426F0772312F4009436D111
:10072200172E7EE1112032F07A95EE0FFF1F661F21
:10073200111CF9CFEF2FF62F612D5F938ADF5F91A6
:1007420008954F93AF01FD01DA01AB01BC01CA016B
:10075200402D012C142E4F910895EA0FFB1F681FA4
:100762000895E095F0956095EF5FFF4F6F4F089504
:100772005F9381DF903871F150E8152604C05F93D2
:100782007ADF903839F1703821F1572F591B2BF14C
:1007920012F4D7DFFACF583118F0AA27BB278827DF
:1007A200583028F0AB2FB82F88275850F9CF55234F
:1007B20029F08695B795A7955A95D9F7502D5125C9
:1007C20072F0CBDF38F46795F795E795739513F4DC
:1007D20020C0B7DF3EDF5F910895D8F7FBCFEA1B59
:1007E200FB0B680B51F010F40094BBDF662392F30D
:1007F200EE0FFF1F661F7A95CBF7EE27FF276627BE
:1008020077275F910895EFEFFFEF6FE77FEF5F913B
:100812000895EFEFFFEF6FE77FE75F9108955F9332
:100822002ADF703851F3903841F301240894791F7C
:1008320023F41CF300203AF3ECCF0F921F932F9373
:100842003F934F93112722279927689FA0018F9FDB
:10085200302D410D591F6B9F300D411D591F8E9F29
:1008620027D0BF9F25D06A9F23D0BE9F1DD0AF9FA8
:100872001BD0AE9F110D291F391F491F591FE32F8E
:10088200F42F652F522F4F913F912F911F910F906F
:1008920066232AF0550FEE1FFF1F661F02C07395D5
:1008A2004BF2CDDE5F910895100D211D391F02C05C
:1008B200200D311D491F591F08955F93DCDE7038EA
:1008C20021F411200AF49FCFA4CF903809F495CFD8
:1008D20001240894970B1BF4D4F30020F3CF792F53
:1008E2001F932F933F934F931124112722273327CE
:1008F2004427552790E2AE17BF078607410730F01D
:10090200AE1BBF0B860B410B089401C08894551F88
:10091200221F331F111CAA1FBB1F881F441F9A9539
:1009220051F7F901612D4F913F912F911F9166234C
:1009320032F0550FEE1FFF1F661F7A9543F27FDEDE
:100942005F91089599239AF0772342F0971748F020
:1009520029F4AE17BF07860720F031F098948894E7
:100962000895989408940895189488940895772384
:10097200C2F7971798F3A9F7EA17FB07680788F3F6
:1009820099F3ECCFF195E195F0400895F0956095DB
:100992007095E195FF4F6F4F7F4F08956F2F660F50
:1009A200660B762F08958B2F880F880B982F08954A
:1009B2000024112490E1AA0FBB1F001C111C0E1A67
:1009C2001F0A18F40E0E1F1E01C0A1609A9599F716
:1009D200FD01D0010895E894B7FF04C0A095B09539
:1009E20011966894F7FDCEDFE3DFFD010EF4CADF56
:1009F2000895ED93FD936D937C930895E881F981B9
:100A02006A817B810895A881B9818A819B81089539
:100A1200E883F9836A837B8308957A936A93FA93CE
:100A2200EA9308959A938A93BA93AA93089568943D
:100A320001C0E89401D06ADE182E862F612D192E8E
:100A4200972F712D1B2EBF2FF12D1A2EAE2FE12DB8
:100A52000895309760407040089500240A160B06EE
:100A6200080609060895EA17FB076807790708953B
:00000001FF
