:060000000C943F000C947B
:1000060000000C9400000C9400000C9400000C946A
:1000160000000C9400000C9400000C9400000C945A
:1000260000000C9400000C9400000C9400000C944A
:1000360000000C9400000C9400000C9400000C943A
:1000460000000C9400000C9400000C940000102793
:10005600E80364000A00010000100001100001001E
:1000660048656C6C6F2C576F726C6421000080C001
:100076000200600174000000F894EE27ECBBF1E08A
:10008600FBBFEBBFE5BF8DE0A2E0BB27ED938A95F2
:10009600E9F780E094E0A0E6ED930197E9F7E6E75B
:1000A600F0E085919591009761F0A591B591059045
:1000B6001590BF01F00105900D920197E1F7FB0144
:1000C600F0CFEFE5EDBFE4E0EEBFC0E6D1E00C9483
:1000D6006C00E0E0E8BBE7BBA0E10E941F010E94C4
:1000E600CE00E0E0EA93A0E00E94BE00A6E6B0E003
:1000F6000E94FB00FFCFFFE0FA95F1F70895A7B342
:10010600AF70A7BBC19AC098F6DFC29AF4DFA6B358
:10011600C298F1DFC29AEFDFC298A7FDF5CF089526
:10012600A07FAB2BA8BBC29A0E947E00C2980E94F9
:100136007E000895AA93C198A7B3A76FA7BBB8B3CB
:10014600BF70A881EDDFA881A295EADFC19A0C9461
:100156005001C29A0E947E00E6B3C2980E947E00B9
:10016600E07F08950E947E00F4DFAE2FF2DFC19893
:10017600E295EA2B0895AA930E948200E881F0E0B6
:10018600E05AFE4FE081A981AE0F0E949D00598082
:100196004880229608950E948200A2E00E949D0057
:1001A6000E948200ACE00E949D000E948200A1E0B5
:1001B6000E949D00E0E04E2E5E2E0895AA93EF93D6
:1001C600FF93A8816894AA3019F0E894571430F088
:1001D6004394E0E0EA93A42DCEDF36F053948FDF0C
:1001E600C09AA8810E949D00FF91EF910C94500146
:1001F600BA93AA931A93E981FA813196E983FA832D
:100206003197E4911E2FE03019F0A12FD7DFF3CFFD
:10021600188123960895AA27BB271197F1F7089509
:10022600AA93C198A7B3A76FA7BBB8B3BF70A8819D
:100236000E949300C19A31C0AA93C298C098788050
:10024600E881E058E0936201E881E054E0936301BD
:100256000E9452010E9452010E945201DCDFA0E27C
:10026600DFDFD9DFA8E20E945701A4E00E94570110
:10027600A5E80E945701A7B3AF70A7BBC19A0E9419
:10028600B500E53011F0E0E008C00E948200A6E06B
:100296000E949D000E94CE00E1E0219608950E94F2
:1002A6000E01A0E30C9413010E949D000C940E0114
:00000001FF
