:0E0000000C9430000C9400000C9400000C9442
:10000E0000000C9400000C9400000C9400000C9462
:10001E0000000C945D000C9400000C9400000C94F5
:10002E0000000C9400000C9400000C9400000C9442
:10003E0000000C9400000C9400000C9400000C9432
:10004E0000000C94000000000000040004005400A6
:10005E000000F894EE27ECBBF1E0FBBFEBBFE5BF71
:10006E008DE0A2E0BB27ED938A95E9F780E094E05E
:10007E00A0E6ED930197E9F7E8E5F0E0859195911B
:10008E00009761F0A591B59105901590BF01F00113
:10009E0005900D920197E1F7FB01F0CFEFE5EDBF73
:1000AE00E4E0EEBFC0E6D1E00C947D00EA93FA9353
:1000BE00EFB7EA93F20131962F01E5E0F0E0E41597
:1000CE00F50559F4EAE0F0E06E167F0614F06624AA
:1000DE00772462BAF30131963F01EFEFEDBDE0EF09
:1000EE00ECBDE991EFBFF991E9911895EFEFE1BB06
:1000FE00E0E0EFBDE1E0EEBDEFEFEDBDE0EFECBD1A
:10010E00E0E0E5BFE4BFE4E0E9BF7894FFCFFFCFC6
:00000001FF
