:100000000C942A000C9400000C9400000C94000046
:100010000C9400000C9400000C9400000C94000060
:100020000C9400000C9400000C9400000C94000050
:100030000C9400000C9400000C9400000C94000040
:100040000C9400000C9400000C9400000C94000030
:100050000C940000F894EE27ECBBF1E0FBBFEBBF83
:10006000E5BF8DE0A2E0BB27ED938A95E9F780E03C
:1000700094E0A0E6ED930197E9F7EFE5EDBFE4E04A
:10008000EEBFC0E6D1E00C94450000E010E0EFEFD9
:10009000E7BBC89B1DC001E010E00030E1E01E0797
:1000A00044F408BBA4E6B0E00E946E00000F111FEC
:1000B000F4CF00E010E00130E0E01E0744F008BBA0
:1000C000A4E6B0E00E946E0015950795F4CF04C039
:1000D000E0E0E8BB00E010E0DCCFFFCF109639F0A5
:1000E00088EB9BE00197F1F7A8951197C9F7089560
:00000001FF
