:060000000C9446000C9474
:1000060000000C9400000C9400000C9400000C946A
:1000160000000C9400000C9400000C9400000C945A
:1000260000000C9400000C9400000C9400000C944A
:1000360000000C9400000C9400000C9400000C943A
:1000460000000C9400000C9400000C940000102793
:10005600E80364000A00010000100001100001001E
:100066006162636465666768696A6B6C6D6E6F7002
:100076007172737475767778797A000080C00200A1
:10008600600182000000F894EE27ECBBF1E0FBBFB4
:10009600EBBFE5BF8DE0A2E0BB27ED938A95E9F7BC
:1000A60080E094E0A0E6ED930197E9F7E4E8F0E05C
:1000B60085919591009761F0A591B5910590159060
:1000C600BF01F00105900D920197E1F7FB01F0CF1A
:1000D600EFE5EDBFE4E0EEBFC0E6D1E00C947300BF
:1000E6006C978CE1A0E0B0E0E6E6F0E00E94A401A7
:1000F600E0E0E8BBE7BBA0E10E9439010E94FB00FB
:1001060044245524ECE1F0E04E165F06FCF4EFE0E3
:10011600F0E04E165F061CF44A92A0E007C0D2013A
:10012600EFE0F0E00E949601EA93A1E00E94EB0066
:10013600DE01A40DB51DAC910E940E01A8ECB0E045
:100146000E947501F20131962F01DCCFFFCFFFCF60
:10015600FFE0FA95F1F70895A7B3AF70A7BBC19A70
:10016600C098F6DFC29AF4DFA6B3C298F1DFC29A4E
:10017600EFDFC298A7FDF5CF0895A07FAB2BA8BBF4
:10018600C29A0E94AB00C2980E94AB000895AA933F
:10019600C198A7B3A76FA7BBB8B3BF70A881EDDF9F
:1001A600A881A295EADFC19A0C946A01C29A0E94BC
:1001B600AB00E6B3C2980E94AB00E07F08950E94B0
:1001C600AB00F4DFAE2FF2DFC198E295EA2B08957B
:1001D600AA930E94AF00E881F0E0E05AFE4FE0816A
:1001E600A981AE0F0E94CA00798068802296089580
:1001F6000E94AF00A2E00E94CA000E94AF00ACE0DD
:100206000E94CA000E94AF00A1E00E94CA00E0E07E
:100216006E2E7E2E0895AA93EF93FF93A88168947D
:10022600AA3019F0E894791430F06394E0E0EA9388
:10023600A62DCEDF36F073948FDFC09AA8810E9478
:10024600CA00FF91EF910C946A01AA27BB27119768
:10025600F1F70895AA93C198A7B3A76FA7BBB8B340
:10026600BF70A8810E94C000C19A31C0AA93C298EB
:10027600C0989880E881E058E0936201E881E054F4
:10028600E09363010E946C010E946C010E946C0164
:10029600DCDFA0E2DFDFD9DFA8E20E947101A4E083
:1002A6000E947101A5E80E947101A7B3AF70A7BBB8
:1002B600C19A0E94E200E53011F0E0E008C00E9419
:1002C600AF00A6E00E94CA000E94FB00E1E0219672
:1002D60008950E942801A0E30C942D010E94CA00F3
:1002E6000C942801109639F088EB9BE00197F1F702
:1002F600A8951197C9F70895F195E195F0400895ED
:100306000024112490E1AA0FBB1F001C111C0E1A19
:100316001F0A18F40E0E1F1E01C0A1609A9599F7C8
:10032600FD01D0010895E894B7FF04C0A095B095EB
:1003360011966894F7FDE0DFE3DFFD010EF4DCDFE4
:100346000895AC0FBD1F05900D928A95E1F70895AB
:00000001FF
